{
  "_format": "hh-sol-artifact-1",
  "contractName": "Router",
  "sourceName": "contracts/router/Router.sol",
  "abi": [
    {
      "inputs": [
        {
          "internalType": "address",
          "name": "_factory",
          "type": "address"
        },
        {
          "internalType": "address",
          "name": "_WNative",
          "type": "address"
        }
      ],
      "stateMutability": "nonpayable",
      "type": "constructor"
    },
    {
      "inputs": [],
      "name": "WNative",
      "outputs": [
        {
          "internalType": "address",
          "name": "",
          "type": "address"
        }
      ],
      "stateMutability": "view",
      "type": "function"
    },
    {
      "inputs": [
        {
          "internalType": "address",
          "name": "tokenA",
          "type": "address"
        },
        {
          "internalType": "address",
          "name": "tokenB",
          "type": "address"
        },
        {
          "internalType": "uint32",
          "name": "fee",
          "type": "uint32"
        },
        {
          "internalType": "uint256",
          "name": "amountADesired",
          "type": "uint256"
        },
        {
          "internalType": "uint256",
          "name": "amountBDesired",
          "type": "uint256"
        },
        {
          "internalType": "uint256",
          "name": "amountAMin",
          "type": "uint256"
        },
        {
          "internalType": "uint256",
          "name": "amountBMin",
          "type": "uint256"
        },
        {
          "internalType": "address",
          "name": "to",
          "type": "address"
        },
        {
          "internalType": "uint256",
          "name": "deadline",
          "type": "uint256"
        }
      ],
      "name": "addLiquidity",
      "outputs": [
        {
          "internalType": "uint256",
          "name": "amountA",
          "type": "uint256"
        },
        {
          "internalType": "uint256",
          "name": "amountB",
          "type": "uint256"
        },
        {
          "internalType": "uint256",
          "name": "liquidity",
          "type": "uint256"
        }
      ],
      "stateMutability": "nonpayable",
      "type": "function"
    },
    {
      "inputs": [
        {
          "internalType": "address",
          "name": "token",
          "type": "address"
        },
        {
          "internalType": "uint32",
          "name": "fee",
          "type": "uint32"
        },
        {
          "internalType": "uint256",
          "name": "amountTokenDesired",
          "type": "uint256"
        },
        {
          "internalType": "uint256",
          "name": "amountTokenMin",
          "type": "uint256"
        },
        {
          "internalType": "uint256",
          "name": "amountNativeMin",
          "type": "uint256"
        },
        {
          "internalType": "address",
          "name": "to",
          "type": "address"
        },
        {
          "internalType": "uint256",
          "name": "deadline",
          "type": "uint256"
        }
      ],
      "name": "addLiquidityNative",
      "outputs": [
        {
          "internalType": "uint256",
          "name": "amountToken",
          "type": "uint256"
        },
        {
          "internalType": "uint256",
          "name": "amountNative",
          "type": "uint256"
        },
        {
          "internalType": "uint256",
          "name": "liquidity",
          "type": "uint256"
        }
      ],
      "stateMutability": "payable",
      "type": "function"
    },
    {
      "inputs": [],
      "name": "factory",
      "outputs": [
        {
          "internalType": "address",
          "name": "",
          "type": "address"
        }
      ],
      "stateMutability": "view",
      "type": "function"
    },
    {
      "inputs": [
        {
          "internalType": "uint256",
          "name": "amountOut",
          "type": "uint256"
        },
        {
          "internalType": "uint256",
          "name": "reserveIn",
          "type": "uint256"
        },
        {
          "internalType": "uint256",
          "name": "reserveOut",
          "type": "uint256"
        },
        {
          "internalType": "uint32",
          "name": "fee",
          "type": "uint32"
        }
      ],
      "name": "getAmountIn",
      "outputs": [
        {
          "internalType": "uint256",
          "name": "amountIn",
          "type": "uint256"
        }
      ],
      "stateMutability": "pure",
      "type": "function"
    },
    {
      "inputs": [
        {
          "internalType": "uint256",
          "name": "amountIn",
          "type": "uint256"
        },
        {
          "internalType": "uint256",
          "name": "reserveIn",
          "type": "uint256"
        },
        {
          "internalType": "uint256",
          "name": "reserveOut",
          "type": "uint256"
        },
        {
          "internalType": "uint32",
          "name": "fee",
          "type": "uint32"
        }
      ],
      "name": "getAmountOut",
      "outputs": [
        {
          "internalType": "uint256",
          "name": "amountOut",
          "type": "uint256"
        }
      ],
      "stateMutability": "pure",
      "type": "function"
    },
    {
      "inputs": [
        {
          "internalType": "uint256",
          "name": "amountOut",
          "type": "uint256"
        },
        {
          "internalType": "address[]",
          "name": "path",
          "type": "address[]"
        },
        {
          "internalType": "uint32[]",
          "name": "feePath",
          "type": "uint32[]"
        }
      ],
      "name": "getAmountsIn",
      "outputs": [
        {
          "internalType": "uint256[]",
          "name": "amounts",
          "type": "uint256[]"
        }
      ],
      "stateMutability": "view",
      "type": "function"
    },
    {
      "inputs": [
        {
          "internalType": "uint256",
          "name": "amountIn",
          "type": "uint256"
        },
        {
          "internalType": "address[]",
          "name": "path",
          "type": "address[]"
        },
        {
          "internalType": "uint32[]",
          "name": "feePath",
          "type": "uint32[]"
        }
      ],
      "name": "getAmountsOut",
      "outputs": [
        {
          "internalType": "uint256[]",
          "name": "amounts",
          "type": "uint256[]"
        }
      ],
      "stateMutability": "view",
      "type": "function"
    },
    {
      "inputs": [
        {
          "internalType": "address",
          "name": "tokenA",
          "type": "address"
        },
        {
          "internalType": "address",
          "name": "tokenB",
          "type": "address"
        },
        {
          "internalType": "uint32",
          "name": "poolFee",
          "type": "uint32"
        }
      ],
      "name": "pairAddress",
      "outputs": [
        {
          "internalType": "address",
          "name": "",
          "type": "address"
        }
      ],
      "stateMutability": "view",
      "type": "function"
    },
    {
      "inputs": [
        {
          "internalType": "uint256",
          "name": "amountA",
          "type": "uint256"
        },
        {
          "internalType": "uint256",
          "name": "reserveA",
          "type": "uint256"
        },
        {
          "internalType": "uint256",
          "name": "reserveB",
          "type": "uint256"
        }
      ],
      "name": "quote",
      "outputs": [
        {
          "internalType": "uint256",
          "name": "amountB",
          "type": "uint256"
        }
      ],
      "stateMutability": "pure",
      "type": "function"
    },
    {
      "inputs": [
        {
          "internalType": "uint256",
          "name": "amountA",
          "type": "uint256"
        },
        {
          "internalType": "address",
          "name": "tokenA",
          "type": "address"
        },
        {
          "internalType": "address",
          "name": "tokenB",
          "type": "address"
        },
        {
          "internalType": "uint32",
          "name": "fee",
          "type": "uint32"
        }
      ],
      "name": "quoteByTokens",
      "outputs": [
        {
          "internalType": "uint256",
          "name": "amountB",
          "type": "uint256"
        }
      ],
      "stateMutability": "view",
      "type": "function"
    },
    {
      "inputs": [
        {
          "internalType": "address",
          "name": "tokenA",
          "type": "address"
        },
        {
          "internalType": "address",
          "name": "tokenB",
          "type": "address"
        },
        {
          "internalType": "uint32",
          "name": "fee",
          "type": "uint32"
        },
        {
          "internalType": "uint256",
          "name": "liquidity",
          "type": "uint256"
        },
        {
          "internalType": "uint256",
          "name": "amountAMin",
          "type": "uint256"
        },
        {
          "internalType": "uint256",
          "name": "amountBMin",
          "type": "uint256"
        },
        {
          "internalType": "address",
          "name": "to",
          "type": "address"
        },
        {
          "internalType": "uint256",
          "name": "deadline",
          "type": "uint256"
        }
      ],
      "name": "removeLiquidity",
      "outputs": [
        {
          "internalType": "uint256",
          "name": "amountA",
          "type": "uint256"
        },
        {
          "internalType": "uint256",
          "name": "amountB",
          "type": "uint256"
        }
      ],
      "stateMutability": "nonpayable",
      "type": "function"
    },
    {
      "inputs": [
        {
          "internalType": "address",
          "name": "token",
          "type": "address"
        },
        {
          "internalType": "uint32",
          "name": "fee",
          "type": "uint32"
        },
        {
          "internalType": "uint256",
          "name": "liquidity",
          "type": "uint256"
        },
        {
          "internalType": "uint256",
          "name": "amountTokenMin",
          "type": "uint256"
        },
        {
          "internalType": "uint256",
          "name": "amountNativeMin",
          "type": "uint256"
        },
        {
          "internalType": "address",
          "name": "to",
          "type": "address"
        },
        {
          "internalType": "uint256",
          "name": "deadline",
          "type": "uint256"
        }
      ],
      "name": "removeLiquidityNative",
      "outputs": [
        {
          "internalType": "uint256",
          "name": "amountToken",
          "type": "uint256"
        },
        {
          "internalType": "uint256",
          "name": "amountNative",
          "type": "uint256"
        }
      ],
      "stateMutability": "nonpayable",
      "type": "function"
    },
    {
      "inputs": [
        {
          "internalType": "uint256",
          "name": "amountOutMin",
          "type": "uint256"
        },
        {
          "internalType": "address[]",
          "name": "path",
          "type": "address[]"
        },
        {
          "internalType": "uint32[]",
          "name": "feePath",
          "type": "uint32[]"
        },
        {
          "internalType": "address",
          "name": "to",
          "type": "address"
        },
        {
          "internalType": "uint256",
          "name": "deadline",
          "type": "uint256"
        }
      ],
      "name": "swapExactNativeForTokens",
      "outputs": [
        {
          "internalType": "uint256[]",
          "name": "amounts",
          "type": "uint256[]"
        }
      ],
      "stateMutability": "payable",
      "type": "function"
    },
    {
      "inputs": [
        {
          "internalType": "uint256",
          "name": "amountIn",
          "type": "uint256"
        },
        {
          "internalType": "uint256",
          "name": "amountOutMin",
          "type": "uint256"
        },
        {
          "internalType": "address[]",
          "name": "path",
          "type": "address[]"
        },
        {
          "internalType": "uint32[]",
          "name": "feePath",
          "type": "uint32[]"
        },
        {
          "internalType": "address",
          "name": "to",
          "type": "address"
        },
        {
          "internalType": "uint256",
          "name": "deadline",
          "type": "uint256"
        }
      ],
      "name": "swapExactTokensForTokens",
      "outputs": [
        {
          "internalType": "uint256[]",
          "name": "amounts",
          "type": "uint256[]"
        }
      ],
      "stateMutability": "nonpayable",
      "type": "function"
    },
    {
      "inputs": [
        {
          "internalType": "uint256",
          "name": "amountOut",
          "type": "uint256"
        },
        {
          "internalType": "uint256",
          "name": "amountInMax",
          "type": "uint256"
        },
        {
          "internalType": "address[]",
          "name": "path",
          "type": "address[]"
        },
        {
          "internalType": "uint32[]",
          "name": "feePath",
          "type": "uint32[]"
        },
        {
          "internalType": "address",
          "name": "to",
          "type": "address"
        },
        {
          "internalType": "uint256",
          "name": "deadline",
          "type": "uint256"
        }
      ],
      "name": "swapTokensForExactNative",
      "outputs": [
        {
          "internalType": "uint256[]",
          "name": "amounts",
          "type": "uint256[]"
        }
      ],
      "stateMutability": "nonpayable",
      "type": "function"
    },
    {
      "inputs": [
        {
          "internalType": "uint256",
          "name": "amountOut",
          "type": "uint256"
        },
        {
          "internalType": "uint256",
          "name": "amountInMax",
          "type": "uint256"
        },
        {
          "internalType": "address[]",
          "name": "path",
          "type": "address[]"
        },
        {
          "internalType": "uint32[]",
          "name": "feePath",
          "type": "uint32[]"
        },
        {
          "internalType": "address",
          "name": "to",
          "type": "address"
        },
        {
          "internalType": "uint256",
          "name": "deadline",
          "type": "uint256"
        }
      ],
      "name": "swapTokensForExactTokens",
      "outputs": [
        {
          "internalType": "uint256[]",
          "name": "amounts",
          "type": "uint256[]"
        }
      ],
      "stateMutability": "nonpayable",
      "type": "function"
    },
    {
      "stateMutability": "payable",
      "type": "receive"
    }
  ],
  "bytecode": "0x60c06040523480156200001157600080fd5b5060405162005d1238038062005d12833981016040819052620000349162000069565b6001600160a01b039182166080521660a052620000a1565b80516001600160a01b03811681146200006457600080fd5b919050565b600080604083850312156200007d57600080fd5b62000088836200004c565b915062000098602084016200004c565b90509250929050565b60805160a051615b64620001ae600039600081816101120152818161037a015281816104110152818161048201528181610512015281816105a7015281816109c401528181610b0d01528181610b9b01528181611498015281816116a2015281816117bb015261180b015260008181610346015281816104600152818161070e0152818161083901528181610a6601528181610be401528181610e2301528181610fe10152818161107b0152818161116201528181611285015281816112b20152818161135a015281816113c601528181611565015281816118f801528181611a4501528181611cb501528181611d5c01528181611de2015281816122f601526123df0152615b646000f3fe6080604052600436106101025760003560e01c806372c6111911610095578063c1aab88611610064578063c1aab886146102ff578063c45a015514610334578063f3ec43c714610368578063f5ad1d0a1461039c578063fe9d7b29146103bc57600080fd5b806372c611191461027f578063813824021461029f5780639cd07615146102bf578063ad615dec146102df57600080fd5b806345bc4b56116100d157806345bc4b56146101d9578063510604641461021157806353e6beaa1461023f5780636d9093531461025f57600080fd5b806305476e1714610146578063119b04d6146101795780631d6b0b9a146101a657806322a4589a146101b957600080fd5b3661014157336001600160a01b037f0000000000000000000000000000000000000000000000000000000000000000161461013f5761013f612e8e565b005b600080fd5b610159610154366004612ece565b6103dc565b604080519384526020840192909252908201526060015b60405180910390f35b34801561018557600080fd5b50610199610194366004612f85565b6106bc565b6040516101709190613025565b6101996101b4366004613069565b61099f565b3480156101c557600080fd5b506101996101d436600461316b565b610dc4565b3480156101e557600080fd5b506101f96101f4366004613240565b611061565b6040516001600160a01b039091168152602001610170565b34801561021d57600080fd5b5061023161022c36600461328b565b6110f5565b604051908152602001610170565b34801561024b57600080fd5b5061019961025a36600461316b565b611103565b34801561026b57600080fd5b5061023161027a3660046132cc565b6112ad565b34801561028b57600080fd5b5061019961029a366004612f85565b61139e565b3480156102ab57600080fd5b506101996102ba366004612f85565b61146b565b3480156102cb57600080fd5b506102316102da36600461328b565b611776565b3480156102eb57600080fd5b506102316102fa366004613314565b611784565b34801561030b57600080fd5b5061031f61031a366004612ece565b611791565b60408051928352602083019190915201610170565b34801561034057600080fd5b506101f97f000000000000000000000000000000000000000000000000000000000000000081565b34801561037457600080fd5b506101f97f000000000000000000000000000000000000000000000000000000000000000081565b3480156103a857600080fd5b506101596103b7366004613340565b611886565b3480156103c857600080fd5b5061031f6103d73660046133cf565b611a03565b6000806000834281101561040b5760405162461bcd60e51b815260040161040290613454565b60405180910390fd5b61043a8b7f00000000000000000000000000000000000000000000000000000000000000008c8c348d8d611c9f565b8094508195505050600073__$29cd54def7ac870639746274e39943fa8d$__633d220cdf7f00000000000000000000000000000000000000000000000000000000000000008e7f00000000000000000000000000000000000000000000000000000000000000008f6040518563ffffffff1660e01b81526004016104c1949392919061347d565b602060405180830381865af41580156104de573d6000803e3d6000fd5b505050506040513d601f19601f8201168201806040525081019061050291906134ac565b90506105108c338388611fe9565b7f00000000000000000000000000000000000000000000000000000000000000006001600160a01b031663d0e30db0856040518263ffffffff1660e01b81526004016000604051808303818588803b15801561056b57600080fd5b505af115801561057f573d6000803e3d6000fd5b505060405163a9059cbb60e01b81526001600160a01b038581166004830152602482018990527f000000000000000000000000000000000000000000000000000000000000000016935063a9059cbb925060440190506020604051808303816000875af11580156105f4573d6000803e3d6000fd5b505050506040513d601f19601f8201168201806040525081019061061891906134d0565b61062457610624612e8e565b6040516335313c2160e11b81526001600160a01b038881166004830152821690636a627842906024016020604051808303816000875af115801561066c573d6000803e3d6000fd5b505050506040513d601f19601f8201168201806040525081019061069091906134f2565b9250833411156106ad576106ad336106a88634613521565b61211f565b50509750975097945050505050565b606081428110156106df5760405162461bcd60e51b815260040161040290613454565b604051630e308fb560e31b815273__$29cd54def7ac870639746274e39943fa8d$__906371847da890610740907f0000000000000000000000000000000000000000000000000000000000000000908e908d908d908d908d9060040161357a565b600060405180830381865af415801561075d573d6000803e3d6000fd5b505050506040513d6000823e601f3d908101601f1916820160405261078591908101906135f3565b9150888260008151811061079b5761079b613679565b602002602001015111156107f15760405162461bcd60e51b815260206004820152601e60248201527f526f757465723a204558434553534956455f494e5055545f414d4f554e5400006044820152606401610402565b6109508888600081811061080757610807613679565b905060200201602081019061081c919061368f565b3373__$29cd54def7ac870639746274e39943fa8d$__633d220cdf7f00000000000000000000000000000000000000000000000000000000000000008d8d600081811061086b5761086b613679565b9050602002016020810190610880919061368f565b8e8e600181811061089357610893613679565b90506020020160208101906108a8919061368f565b8d8d60008181106108bb576108bb613679565b90506020020160208101906108d091906136ac565b6040518563ffffffff1660e01b81526004016108ef949392919061347d565b602060405180830381865af415801561090c573d6000803e3d6000fd5b505050506040513d601f19601f8201168201806040525081019061093091906134ac565b8560008151811061094357610943613679565b6020026020010151611fe9565b610992828989808060200260200160405190810160405280939291908181526020018383602002808284376000920191909152508b92508a91508990506121fc565b5098975050505050505050565b606081428110156109c25760405162461bcd60e51b815260040161040290613454565b7f00000000000000000000000000000000000000000000000000000000000000006001600160a01b0316888860008181106109ff576109ff613679565b9050602002016020810190610a14919061368f565b6001600160a01b031614610a615760405162461bcd60e51b81526020600482015260146024820152730a4deeae8cae47440929cac82989288bea082a8960631b6044820152606401610402565b610ac37f0000000000000000000000000000000000000000000000000000000000000000348a8a808060200260200160405190810160405280939291908181526020018383602002808284376000920191909152508c92508b91506125309050565b9150888260018451610ad59190613521565b81518110610ae557610ae5613679565b60200260200101511015610b0b5760405162461bcd60e51b8152600401610402906136c9565b7f00000000000000000000000000000000000000000000000000000000000000006001600160a01b031663d0e30db083600081518110610b4d57610b4d613679565b60200260200101516040518263ffffffff1660e01b81526004016000604051808303818588803b158015610b8057600080fd5b505af1158015610b94573d6000803e3d6000fd5b50505050507f00000000000000000000000000000000000000000000000000000000000000006001600160a01b031663a9059cbb73__$29cd54def7ac870639746274e39943fa8d$__633d220cdf7f00000000000000000000000000000000000000000000000000000000000000008c8c6000818110610c1657610c16613679565b9050602002016020810190610c2b919061368f565b8d8d6001818110610c3e57610c3e613679565b9050602002016020810190610c53919061368f565b8c8c6000818110610c6657610c66613679565b9050602002016020810190610c7b91906136ac565b6040518563ffffffff1660e01b8152600401610c9a949392919061347d565b602060405180830381865af4158015610cb7573d6000803e3d6000fd5b505050506040513d601f19601f82011682018060405250810190610cdb91906134ac565b84600081518110610cee57610cee613679565b60200260200101516040518363ffffffff1660e01b8152600401610d279291906001600160a01b03929092168252602082015260400190565b6020604051808303816000875af1158015610d46573d6000803e3d6000fd5b505050506040513d601f19601f82011682018060405250810190610d6a91906134d0565b610d7657610d76612e8e565b610db8828989808060200260200160405190810160405280939291908181526020018383602002808284376000920191909152508b92508a91508990506121fc565b50979650505050505050565b6060600284511015610e075760405162461bcd60e51b815260206004820152600c60248201526b0929cac82989288bea082a8960a31b6044820152606401610402565b60005b60018551610e189190613521565b811015610fb15760007f00000000000000000000000000000000000000000000000000000000000000006001600160a01b03166335a54e06878481518110610e6257610e62613679565b602002602001015188856001610e78919061370b565b81518110610e8857610e88613679565b6020026020010151888887818110610ea257610ea2613679565b9050602002016020810190610eb791906136ac565b6040518463ffffffff1660e01b8152600401610ed59392919061371e565b602060405180830381865afa158015610ef2573d6000803e3d6000fd5b505050506040513d601f19601f82011682018060405250810190610f1691906134ac565b90506001600160a01b038116610f9e5760025b604051908082528060200260200182016040528015610f52578160200160208202803683370190505b509250600083600081518110610f6a57610f6a613679565b602002602001018181525050600083600181518110610f8b57610f8b613679565b6020026020010181815250505050611059565b5080610fa981613747565b915050610e0a565b50604051630e308fb560e31b815273__$29cd54def7ac870639746274e39943fa8d$__906371847da890611011907f0000000000000000000000000000000000000000000000000000000000000000908990899089908990600401613760565b600060405180830381865af415801561102e573d6000803e3d6000fd5b505050506040513d6000823e601f3d908101601f1916820160405261105691908101906135f3565b90505b949350505050565b604051631ad2a70360e11b81526000906001600160a01b037f000000000000000000000000000000000000000000000000000000000000000016906335a54e06906110b49087908790879060040161371e565b602060405180830381865afa1580156110d1573d6000803e3d6000fd5b505050506040513d601f19601f8201168201806040525081019061105991906134ac565b60006110568585858561270b565b60606002845110156111465760405162461bcd60e51b815260206004820152600c60248201526b0929cac82989288bea082a8960a31b6044820152606401610402565b60005b600185516111579190613521565b81101561127f5760007f00000000000000000000000000000000000000000000000000000000000000006001600160a01b03166335a54e068784815181106111a1576111a1613679565b6020026020010151888560016111b7919061370b565b815181106111c7576111c7613679565b60200260200101518888878181106111e1576111e1613679565b90506020020160208101906111f691906136ac565b6040518463ffffffff1660e01b81526004016112149392919061371e565b602060405180830381865afa158015611231573d6000803e3d6000fd5b505050506040513d601f19601f8201168201806040525081019061125591906134ac565b90506001600160a01b03811661126c576002610f29565b508061127781613747565b915050611149565b506110567f000000000000000000000000000000000000000000000000000000000000000086868686612530565b6000807f00000000000000000000000000000000000000000000000000000000000000006001600160a01b03166335a54e068686866040518463ffffffff1660e01b81526004016113009392919061371e565b602060405180830381865afa15801561131d573d6000803e3d6000fd5b505050506040513d601f19601f8201168201806040525081019061134191906134ac565b90506001600160a01b03811615611395576000806113817f00000000000000000000000000000000000000000000000000000000000000008888886127f2565b915091506113908883836128be565b935050505b50949350505050565b606081428110156113c15760405162461bcd60e51b815260040161040290613454565b6114237f00000000000000000000000000000000000000000000000000000000000000008b8a8a808060200260200160405190810160405280939291908181526020018383602002808284376000920191909152508c92508b91506125309050565b91508882600184516114359190613521565b8151811061144557611445613679565b602002602001015110156107f15760405162461bcd60e51b8152600401610402906136c9565b6060814281101561148e5760405162461bcd60e51b815260040161040290613454565b6001600160a01b037f00000000000000000000000000000000000000000000000000000000000000001688886114c5600182613521565b8181106114d4576114d4613679565b90506020020160208101906114e9919061368f565b6001600160a01b0316146115365760405162461bcd60e51b81526020600482015260146024820152730a4deeae8cae47440929cac82989288bea082a8960631b6044820152606401610402565b604051630e308fb560e31b815273__$29cd54def7ac870639746274e39943fa8d$__906371847da890611597907f0000000000000000000000000000000000000000000000000000000000000000908e908d908d908d908d9060040161357a565b600060405180830381865af41580156115b4573d6000803e3d6000fd5b505050506040513d6000823e601f3d908101601f191682016040526115dc91908101906135f3565b915088826000815181106115f2576115f2613679565b602002602001015111156116485760405162461bcd60e51b815260206004820152601e60248201527f526f757465723a204558434553534956455f494e5055545f414d4f554e5400006044820152606401610402565b61165e8888600081811061080757610807613679565b6116a0828989808060200260200160405190810160405280939291908181526020018383602002808284376000920191909152508b92508a91503090506121fc565b7f00000000000000000000000000000000000000000000000000000000000000006001600160a01b0316632e1a7d4d83600185516116de9190613521565b815181106116ee576116ee613679565b60200260200101516040518263ffffffff1660e01b815260040161171491815260200190565b600060405180830381600087803b15801561172e57600080fd5b505af1158015611742573d6000803e3d6000fd5b505050506109928483600185516117599190613521565b8151811061176957611769613679565b602002602001015161211f565b600061105685858585612950565b60006110598484846128be565b60008082428110156117b55760405162461bcd60e51b815260040161040290613454565b6117e58a7f00000000000000000000000000000000000000000000000000000000000000008b8b8b8b308b611a03565b90935091506117f58a8685612a3e565b604051632e1a7d4d60e01b8152600481018390527f00000000000000000000000000000000000000000000000000000000000000006001600160a01b031690632e1a7d4d90602401600060405180830381600087803b15801561185757600080fd5b505af115801561186b573d6000803e3d6000fd5b50505050611879858361211f565b5097509795505050505050565b600080600083428110156118ac5760405162461bcd60e51b815260040161040290613454565b6118bb8d8d8d8d8d8d8d611c9f565b604051633d220cdf60e01b815291955093508d908d908d9060009073__$29cd54def7ac870639746274e39943fa8d$__90633d220cdf90611926907f00000000000000000000000000000000000000000000000000000000000000009088908890889060040161347d565b602060405180830381865af4158015611943573d6000803e3d6000fd5b505050506040513d601f19601f8201168201806040525081019061196791906134ac565b90506119758433838b611fe9565b6119818333838a611fe9565b6040516335313c2160e11b81526001600160a01b038b81166004830152821690636a627842906024016020604051808303816000875af11580156119c9573d6000803e3d6000fd5b505050506040513d601f19601f820116820180604052508101906119ed91906134f2565b9550505050505099509950999650505050505050565b6000808242811015611a275760405162461bcd60e51b815260040161040290613454565b600073__$29cd54def7ac870639746274e39943fa8d$__633d220cdf7f00000000000000000000000000000000000000000000000000000000000000008e8e8e6040518563ffffffff1660e01b8152600401611a86949392919061347d565b602060405180830381865af4158015611aa3573d6000803e3d6000fd5b505050506040513d601f19601f82011682018060405250810190611ac791906134ac565b6040516323b872dd60e01b81523360048201526001600160a01b03821660248201819052604482018c90529192506323b872dd906064016020604051808303816000875af1158015611b1d573d6000803e3d6000fd5b505050506040513d601f19601f82011682018060405250810190611b4191906134d0565b5060405163226bf2d160e21b81526001600160a01b03878116600483015260009182918416906389afcb449060240160408051808303816000875af1158015611b8e573d6000803e3d6000fd5b505050506040513d601f19601f82011682018060405250810190611bb291906137d8565b915091506000611bc28f8f612b67565b509050806001600160a01b03168f6001600160a01b031614611be5578183611be8565b82825b90975095508a871015611c3d5760405162461bcd60e51b815260206004820152601d60248201527f526f757465723a20494e53554646494349454e545f415f414d4f554e540000006044820152606401610402565b89861015611c8d5760405162461bcd60e51b815260206004820152601d60248201527f526f757465723a20494e53554646494349454e545f425f414d4f554e540000006044820152606401610402565b50505050509850989650505050505050565b604051631ad2a70360e11b8152600090819081907f00000000000000000000000000000000000000000000000000000000000000006001600160a01b0316906335a54e0690611cf6908d908d908d9060040161371e565b602060405180830381865afa158015611d13573d6000803e3d6000fd5b505050506040513d601f19601f82011682018060405250810190611d3791906134ac565b6001600160a01b031603611dda57604051632348b3d560e21b81526001600160a01b037f00000000000000000000000000000000000000000000000000000000000000001690638d22cf5490611d95908c908c908c9060040161371e565b6020604051808303816000875af1158015611db4573d6000803e3d6000fd5b505050506040513d601f19601f82011682018060405250810190611dd891906134ac565b505b600080611e097f00000000000000000000000000000000000000000000000000000000000000008c8c8c6127f2565b91509150816000148015611e1b575080155b15611e2b57879350869250611fdb565b604051632b58577b60e21b8152600481018990526024810183905260448101829052600090309063ad615dec90606401602060405180830381865afa158015611e78573d6000803e3d6000fd5b505050506040513d601f19601f82011682018060405250810190611e9c91906134f2565b9050878111611f005785811015611ef55760405162461bcd60e51b815260206004820152601d60248201527f526f757465723a20494e53554646494349454e54204220414d4f554e540000006044820152606401610402565b889450925082611fd9565b604051632b58577b60e21b8152600481018990526024810183905260448101849052600090309063ad615dec90606401602060405180830381865afa158015611f4d573d6000803e3d6000fd5b505050506040513d601f19601f82011682018060405250810190611f7191906134f2565b905089811115611f8357611f83612e8e565b87811015611fd35760405162461bcd60e51b815260206004820152601d60248201527f526f757465723a20494e53554646494349454e54204120414d4f554e540000006044820152606401610402565b94508793505b505b505097509795505050505050565b604080516001600160a01b0385811660248301528481166044830152606480830185905283518084039091018152608490920183526020820180516001600160e01b03166323b872dd60e01b179052915160009283929088169161204d9190613820565b6000604051808303816000865af19150503d806000811461208a576040519150601f19603f3d011682016040523d82523d6000602084013e61208f565b606091505b50915091508180156120b95750805115806120b95750808060200190518101906120b991906134d0565b6121175760405162461bcd60e51b815260206004820152602960248201527f526f757465723a3a7472616e7366657246726f6d3a207472616e7366657246726044820152681bdb4819985a5b195960ba1b6064820152608401610402565b505050505050565b604080516000808252602082019092526001600160a01b0384169083906040516121499190613820565b60006040518083038185875af1925050503d8060008114612186576040519150601f19603f3d011682016040523d82523d6000602084013e61218b565b606091505b50509050806121f75760405162461bcd60e51b815260206004820152603260248201527f526f757465723a3a736166655472616e736665724e61746976653a204e6174696044820152711d99481d1c985b9cd9995c8819985a5b195960721b6064820152608401610402565b505050565b60005b6001855161220d9190613521565b8110156121175760008086838151811061222957612229613679565b60200260200101518784600161223f919061370b565b8151811061224f5761224f613679565b60200260200101519150915060006122678383612b67565b50905060008961227886600161370b565b8151811061228857612288613679565b60200260200101519050600080836001600160a01b0316866001600160a01b0316146122b6578260006122ba565b6000835b91509150600060028c516122ce9190613521565b88106122da57886123c1565b73__$29cd54def7ac870639746274e39943fa8d$__633d220cdf7f0000000000000000000000000000000000000000000000000000000000000000888f6123228d600261370b565b8151811061233257612332613679565b60200260200101518f8f8e81811061234c5761234c613679565b905060200201602081019061236191906136ac565b6040518563ffffffff1660e01b8152600401612380949392919061347d565b602060405180830381865af415801561239d573d6000803e3d6000fd5b505050506040513d601f19601f820116820180604052508101906123c191906134ac565b905073__$29cd54def7ac870639746274e39943fa8d$__633d220cdf7f000000000000000000000000000000000000000000000000000000000000000089898f8f8e81811061241257612412613679565b905060200201602081019061242791906136ac565b6040518563ffffffff1660e01b8152600401612446949392919061347d565b602060405180830381865af4158015612463573d6000803e3d6000fd5b505050506040513d601f19601f8201168201806040525081019061248791906134ac565b6001600160a01b031663022c0d9f84848460006040519080825280601f01601f1916602001820160405280156124c4576020820181803683370190505b506040518563ffffffff1660e01b81526004016124e4949392919061383c565b600060405180830381600087803b1580156124fe57600080fd5b505af1158015612512573d6000803e3d6000fd5b5050505050505050505050808061252890613747565b9150506121ff565b60606002845110156125845760405162461bcd60e51b815260206004820152601860248201527f4445584c6962726172793a20494e56414c49445f5041544800000000000000006044820152606401610402565b835167ffffffffffffffff81111561259e5761259e613100565b6040519080825280602002602001820160405280156125c7578160200160208202803683370190505b50905084816000815181106125de576125de613679565b60200260200101818152505060005b600185516125fb9190613521565b811015612701576000806126758988858151811061261b5761261b613679565b602002602001015189866001612631919061370b565b8151811061264157612641613679565b602002602001015189898881811061265b5761265b613679565b905060200201602081019061267091906136ac565b6127f2565b915091506126c484848151811061268e5761268e613679565b602002602001015183838989888181106126aa576126aa613679565b90506020020160208101906126bf91906136ac565b61270b565b846126d085600161370b565b815181106126e0576126e0613679565b602002602001018181525050505080806126f990613747565b9150506125ed565b5095945050505050565b600080851161276a5760405162461bcd60e51b815260206004820152602560248201527f4445584c6962726172793a20494e53554646494349454e545f494e5055545f416044820152641353d5539560da1b6064820152608401610402565b60008411801561277a5750600083115b6127965760405162461bcd60e51b81526004016104029061388c565b60006127bd6127a884620186a06138ce565b63ffffffff1687612c5090919063ffffffff16565b905060006127cb8286612c50565b905060006127e6836127e089620186a0612c50565b90612cbd565b905061139081836138f2565b60008060006128018686612b67565b50905060008061281389898989612d12565b6001600160a01b0316630902f1ac6040518163ffffffff1660e01b8152600401606060405180830381865afa158015612850573d6000803e3d6000fd5b505050506040513d601f19601f820116820180604052508101906128749190613930565b506001600160701b031691506001600160701b03169150826001600160a01b0316886001600160a01b0316146128ab5780826128ae565b81815b909a909950975050505050505050565b600080841161290f5760405162461bcd60e51b815260206004820152601f60248201527f4445584c6962726172793a20494e53554646494349454e545f414d4f554e54006044820152606401610402565b60008311801561291f5750600082115b61293b5760405162461bcd60e51b81526004016104029061388c565b826129468584612c50565b61105991906138f2565b60008085116129b05760405162461bcd60e51b815260206004820152602660248201527f4445584c6962726172793a20494e53554646494349454e545f4f55545055545f604482015265105353d5539560d21b6064820152608401610402565b6000841180156129c05750600083115b6129dc5760405162461bcd60e51b81526004016104029061388c565b60006129f5620186a06129ef8789612c50565b90612c50565b90506000612a22612a0985620186a06138ce565b63ffffffff166129ef8988612e2b90919063ffffffff16565b9050612a3360016127e083856138f2565b979650505050505050565b604080516001600160a01b038481166024830152604480830185905283518084039091018152606490920183526020820180516001600160e01b031663a9059cbb60e01b1790529151600092839290871691612a9a9190613820565b6000604051808303816000865af19150503d8060008114612ad7576040519150601f19603f3d011682016040523d82523d6000602084013e612adc565b606091505b5091509150818015612b06575080511580612b06575080806020019051810190612b0691906134d0565b612b605760405162461bcd60e51b815260206004820152602560248201527f526f757465723a3a736166655472616e736665723a207472616e736665722066604482015264185a5b195960da1b6064820152608401610402565b5050505050565b600080826001600160a01b0316846001600160a01b031603612bcb5760405162461bcd60e51b815260206004820152601f60248201527f4445584c6962726172793a204944454e544943414c5f414444524553534553006044820152606401610402565b826001600160a01b0316846001600160a01b031610612beb578284612bee565b83835b90925090506001600160a01b038216612c495760405162461bcd60e51b815260206004820152601860248201527f4445584c6962726172793a205a45524f5f4144445245535300000000000000006044820152606401610402565b9250929050565b6000811580612c7457508282612c66818361396c565b9250612c7290836138f2565b145b612cb75760405162461bcd60e51b815260206004820152601460248201527364732d6d6174682d6d756c2d6f766572666c6f7760601b6044820152606401610402565b92915050565b600082612cca838261370b565b9150811015612cb75760405162461bcd60e51b815260206004820152601460248201527364732d6d6174682d6164642d6f766572666c6f7760601b6044820152606401610402565b6000806000612d218686612b67565b6040516bffffffffffffffffffffffff19606084811b8216602084015283901b1660348201526001600160e01b031960e088901b16604882015291935091508790604c016040516020818303038152906040528051906020012060405180602001612d8b90612e81565b601f1982820381018352601f909101166040819052612dad9190602001613820565b60405160208183030381529060405280519060200120604051602001612e08939291906001600160f81b0319815260609390931b6bffffffffffffffffffffffff191660018401526015830191909152603582015260550190565b60408051601f198184030181529190528051602090910120979650505050505050565b600082612e388382613521565b9150811115612cb75760405162461bcd60e51b815260206004820152601560248201527464732d6d6174682d7375622d756e646572666c6f7760581b6044820152606401610402565b6121ab8061398483390190565b634e487b7160e01b600052600160045260246000fd5b6001600160a01b0381168114612eb957600080fd5b50565b63ffffffff81168114612eb957600080fd5b600080600080600080600060e0888a031215612ee957600080fd5b8735612ef481612ea4565b96506020880135612f0481612ebc565b955060408801359450606088013593506080880135925060a0880135612f2981612ea4565b8092505060c0880135905092959891949750929550565b60008083601f840112612f5257600080fd5b50813567ffffffffffffffff811115612f6a57600080fd5b6020830191508360208260051b8501011115612c4957600080fd5b60008060008060008060008060c0898b031215612fa157600080fd5b8835975060208901359650604089013567ffffffffffffffff80821115612fc757600080fd5b612fd38c838d01612f40565b909850965060608b0135915080821115612fec57600080fd5b50612ff98b828c01612f40565b909550935050608089013561300d81612ea4565b8092505060a089013590509295985092959890939650565b6020808252825182820181905260009190848201906040850190845b8181101561305d57835183529284019291840191600101613041565b50909695505050505050565b600080600080600080600060a0888a03121561308457600080fd5b87359650602088013567ffffffffffffffff808211156130a357600080fd5b6130af8b838c01612f40565b909850965060408a01359150808211156130c857600080fd5b506130d58a828b01612f40565b90955093505060608801356130e981612ea4565b809250506080880135905092959891949750929550565b634e487b7160e01b600052604160045260246000fd5b604051601f8201601f1916810167ffffffffffffffff8111828210171561313f5761313f613100565b604052919050565b600067ffffffffffffffff82111561316157613161613100565b5060051b60200190565b6000806000806060858703121561318157600080fd5b8435935060208086013567ffffffffffffffff808211156131a157600080fd5b818801915088601f8301126131b557600080fd5b81356131c86131c382613147565b613116565b81815260059190911b8301840190848101908b8311156131e757600080fd5b938501935b8285101561320e5784356131ff81612ea4565b825293850193908501906131ec565b97505050604088013592508083111561322657600080fd5b505061323487828801612f40565b95989497509550505050565b60008060006060848603121561325557600080fd5b833561326081612ea4565b9250602084013561327081612ea4565b9150604084013561328081612ebc565b809150509250925092565b600080600080608085870312156132a157600080fd5b84359350602085013592506040850135915060608501356132c181612ebc565b939692955090935050565b600080600080608085870312156132e257600080fd5b8435935060208501356132f481612ea4565b9250604085013561330481612ea4565b915060608501356132c181612ebc565b60008060006060848603121561332957600080fd5b505081359360208301359350604090920135919050565b60008060008060008060008060006101208a8c03121561335f57600080fd5b893561336a81612ea4565b985060208a013561337a81612ea4565b975060408a013561338a81612ebc565b965060608a0135955060808a0135945060a08a0135935060c08a0135925060e08a01356133b681612ea4565b809250506101008a013590509295985092959850929598565b600080600080600080600080610100898b0312156133ec57600080fd5b88356133f781612ea4565b9750602089013561340781612ea4565b9650604089013561341781612ebc565b9550606089013594506080890135935060a0890135925060c089013561343c81612ea4565b8092505060e089013590509295985092959890939650565b6020808252600f908201526e149bdd5d195c8e8811561412549151608a1b604082015260600190565b6001600160a01b03948516815292841660208401529216604082015263ffffffff909116606082015260800190565b6000602082840312156134be57600080fd5b81516134c981612ea4565b9392505050565b6000602082840312156134e257600080fd5b815180151581146134c957600080fd5b60006020828403121561350457600080fd5b5051919050565b634e487b7160e01b600052601160045260246000fd5b81810381811115612cb757612cb761350b565b8183526000602080850194508260005b8581101561356f57813561355781612ebc565b63ffffffff1687529582019590820190600101613544565b509495945050505050565b6001600160a01b03878116825260208083018890526080604084018190528301869052600091879160a08501845b898110156135cf5784356135bb81612ea4565b8416825293820193908201906001016135a8565b5085810360608701526135e381888a613534565b9c9b505050505050505050505050565b6000602080838503121561360657600080fd5b825167ffffffffffffffff81111561361d57600080fd5b8301601f8101851361362e57600080fd5b805161363c6131c382613147565b81815260059190911b8201830190838101908783111561365b57600080fd5b928401925b82841015612a3357835182529284019290840190613660565b634e487b7160e01b600052603260045260246000fd5b6000602082840312156136a157600080fd5b81356134c981612ea4565b6000602082840312156136be57600080fd5b81356134c981612ebc565b60208082526022908201527f526f757465723a20494e53554646494349454e545f4f55545055545f414d4f55604082015261139560f21b606082015260800190565b80820180821115612cb757612cb761350b565b6001600160a01b03938416815291909216602082015263ffffffff909116604082015260600190565b6000600182016137595761375961350b565b5060010190565b6001600160a01b0386811682526020808301879052608060408401819052865190840181905260009287830192909160a0860190855b818110156137b4578551851683529483019491830191600101613796565b505085810360608701526137c981888a613534565b9b9a5050505050505050505050565b600080604083850312156137eb57600080fd5b505080516020909101519092909150565b60005b838110156138175781810151838201526020016137ff565b50506000910152565b600082516138328184602087016137fc565b9190910192915050565b84815283602082015260018060a01b038316604082015260806060820152600082518060808401526138758160a08501602087016137fc565b601f01601f19169190910160a00195945050505050565b60208082526022908201527f4445584c6962726172793a20494e53554646494349454e545f4c495155494449604082015261545960f01b606082015260800190565b63ffffffff8281168282160390808211156138eb576138eb61350b565b5092915050565b60008261390f57634e487b7160e01b600052601260045260246000fd5b500490565b80516001600160701b038116811461392b57600080fd5b919050565b60008060006060848603121561394557600080fd5b61394e84613914565b925061395c60208501613914565b9150604084015161328081612ebc565b8082028115828204841417612cb757612cb761350b56fe60806040526001600c5534801561001557600080fd5b50600480546001600160a01b03191633179055612174806100376000396000f3fe608060405234801561001057600080fd5b50600436106101a95760003560e01c80637464fc3d116100f9578063bc25cf7711610097578063d21220a711610071578063d21220a714610438578063dd62ed3e1461044b578063e86dea4a14610476578063fff6cae91461048657600080fd5b8063bc25cf77146103ff578063c45a015514610412578063d0f695791461042557600080fd5b806395d89b41116100d357806395d89b4114610392578063a9059cbb146103b6578063b0e21e8a146103c9578063ba9a7a56146103f657600080fd5b80637464fc3d146103415780637ecebe001461034a57806389afcb441461036a57600080fd5b806323b872dd116101665780635909c0d5116101405780635909c0d5146102fc5780635a3d5493146103055780636a6278421461030e57806370a082311461032157600080fd5b806323b872dd146102a857806330adf81f146102bb578063313ce567146102e257600080fd5b8063022c0d9f146101ae57806306fdde03146101c35780630902f1ac14610208578063095ea7b3146102435780630dfe16811461026657806318160ddd14610291575b600080fd5b6101c16101bc366004611cb3565b61048e565b005b6101f26040518060400160405280601081526020016f22a9219918102830b4b9102a37b5b2b760811b81525081565b6040516101ff9190611d6d565b60405180910390f35b600754604080516001600160701b038084168252600160701b8404166020820152600160e01b90920463ffffffff16908201526060016101ff565b610256610251366004611da0565b610a10565b60405190151581526020016101ff565b600554610279906001600160a01b031681565b6040516001600160a01b0390911681526020016101ff565b61029a60005481565b6040519081526020016101ff565b6102566102b6366004611dcc565b610a27565b61029a7f6e71edae12b1b97f4d1f60370fef10105fa2faae0126114a169c64845d6126c981565b6102ea601281565b60405160ff90911681526020016101ff565b61029a60095481565b61029a600a5481565b61029a61031c366004611e0d565b610abc565b61029a61032f366004611e0d565b60016020526000908152604090205481565b61029a600b5481565b61029a610358366004611e0d565b60036020526000908152604090205481565b61037d610378366004611e0d565b610de1565b604080519283526020830191909152016101ff565b6101f26040518060400160405280600581526020016426282a25a760d91b81525081565b6102566103c4366004611da0565b6111a4565b6008546103e190640100000000900463ffffffff1681565b60405163ffffffff90911681526020016101ff565b61029a6103e881565b6101c161040d366004611e0d565b6111b1565b600454610279906001600160a01b031681565b6101c1610433366004611e3c565b6112c5565b600654610279906001600160a01b031681565b61029a610459366004611e98565b600260209081526000928352604080842090915290825290205481565b6008546103e19063ffffffff1681565b6101c1611374565b600c546001146104b95760405162461bcd60e51b81526004016104b090611ed1565b60405180910390fd5b6000600c55841515806104cc5750600084115b6105265760405162461bcd60e51b815260206004820152602560248201527f4552433230506169723a20494e53554646494349454e545f4f55545055545f416044820152641353d5539560da1b60648201526084016104b0565b600080306001600160a01b0316630902f1ac6040518163ffffffff1660e01b8152600401606060405180830381865afa158015610567573d6000803e3d6000fd5b505050506040513d601f19601f8201168201806040525081019061058b9190611f13565b5091509150816001600160701b0316871080156105b05750806001600160701b031686105b6106065760405162461bcd60e51b815260206004820152602160248201527f4552433230506169723a20494e53554646494349454e545f4c495155494449546044820152605960f81b60648201526084016104b0565b60055460065460009182916001600160a01b039182169190811690891682148015906106445750806001600160a01b0316896001600160a01b031614155b6106885760405162461bcd60e51b81526020600482015260156024820152744552433230506169723a20494e56414c49445f544f60581b60448201526064016104b0565b8a1561069957610699828a8d611498565b89156106aa576106aa818a8c611498565b861561071757604051635619e7fd60e11b81526001600160a01b038a169063ac33cffa906106e49033908f908f908e908e90600401611f5a565b600060405180830381600087803b1580156106fe57600080fd5b505af1158015610712573d6000803e3d6000fd5b505050505b6040516370a0823160e01b81523060048201526001600160a01b038316906370a0823190602401602060405180830381865afa15801561075b573d6000803e3d6000fd5b505050506040513d601f19601f8201168201806040525081019061077f9190611fa6565b6040516370a0823160e01b81523060048201529094506001600160a01b038216906370a0823190602401602060405180830381865afa1580156107c6573d6000803e3d6000fd5b505050506040513d601f19601f820116820180604052508101906107ea9190611fa6565b92505050600089856001600160701b03166108059190611fd5565b831161081257600061082f565b6108258a6001600160701b038716611fd5565b61082f9084611fd5565b905060006108468a6001600160701b038716611fd5565b8311610853576000610870565b6108668a6001600160701b038716611fd5565b6108709084611fd5565b905060008211806108815750600081115b6108d95760405162461bcd60e51b8152602060048201526024808201527f4552433230506169723a20494e53554646494349454e545f494e5055545f414d60448201526313d5539560e21b60648201526084016104b0565b60085460009061090b906108f890859063ffffffff908116906115b316565b61090587620186a06115b3565b9061161a565b60085490915060009061092d906108f890859063ffffffff908116906115b316565b90506109546402540be40061094e6001600160701b038b8116908b166115b3565b906115b3565b61095e83836115b3565b101561099b5760405162461bcd60e51b815260206004820152600c60248201526b4552433230506169723a204b60a01b60448201526064016104b0565b50506109a984848888611670565b60408051838152602081018390529081018c9052606081018b90526001600160a01b038a169033907fd78ad95fa46c994b6551d0da85fc275fe613ce37657fb8d5e3d130840159d8229060800160405180910390a350506001600c55505050505050505050565b6000610a1d33848461185c565b5060015b92915050565b6001600160a01b038316600090815260026020908152604080832033845290915281205460001914610aa7576001600160a01b0384166000908152600260209081526040808320338452909152902054610a82908390611fd5565b6001600160a01b03851660009081526002602090815260408083203384529091529020555b610ab28484846118be565b5060019392505050565b6000600c54600114610ae05760405162461bcd60e51b81526004016104b090611ed1565b6000600c81905550600080306001600160a01b0316630902f1ac6040518163ffffffff1660e01b8152600401606060405180830381865afa158015610b29573d6000803e3d6000fd5b505050506040513d601f19601f82011682018060405250810190610b4d9190611f13565b506005546040516370a0823160e01b81523060048201529294509092506000916001600160a01b03909116906370a0823190602401602060405180830381865afa158015610b9f573d6000803e3d6000fd5b505050506040513d601f19601f82011682018060405250810190610bc39190611fa6565b6006546040516370a0823160e01b81523060048201529192506000916001600160a01b03909116906370a0823190602401602060405180830381865afa158015610c11573d6000803e3d6000fd5b505050506040513d601f19601f82011682018060405250810190610c359190611fa6565b90506000610c4c836001600160701b03871661161a565b90506000610c63836001600160701b03871661161a565b90506000610c718787611966565b60008054919250819003610cab57610c976103e8610905610c9287876115b3565b611ac8565b9850610ca660006103e8611b38565b610cf2565b610cef6001600160701b038916610cc286846115b3565b610ccc9190611ffe565b6001600160701b038916610ce086856115b3565b610cea9190611ffe565b611bc9565b98505b60008911610d535760405162461bcd60e51b815260206004820152602860248201527f4552433230506169723a20494e53554646494349454e545f4c495155494449546044820152671657d3525395115160c21b60648201526084016104b0565b610d5d8a8a611b38565b610d6986868a8a611670565b8115610d9357600754610d8f906001600160701b0380821691600160701b9004166115b3565b600b555b604080518581526020810185905233917f4c209b5fc8ad50758f13e2e1088ba56a560dff690a1c6fef26394f4c03821c4f910160405180910390a250506001600c5550949695505050505050565b600080600c54600114610e065760405162461bcd60e51b81526004016104b090611ed1565b6000600c81905550600080306001600160a01b0316630902f1ac6040518163ffffffff1660e01b8152600401606060405180830381865afa158015610e4f573d6000803e3d6000fd5b505050506040513d601f19601f82011682018060405250810190610e739190611f13565b506005546006546040516370a0823160e01b81523060048201529395509193506001600160a01b039081169291169060009083906370a0823190602401602060405180830381865afa158015610ecd573d6000803e3d6000fd5b505050506040513d601f19601f82011682018060405250810190610ef19190611fa6565b6040516370a0823160e01b81523060048201529091506000906001600160a01b038416906370a0823190602401602060405180830381865afa158015610f3b573d6000803e3d6000fd5b505050506040513d601f19601f82011682018060405250810190610f5f9190611fa6565b30600090815260016020526040812054919250610f7c8888611966565b60005490915080610f8d84876115b3565b610f979190611ffe565b9a5080610fa484866115b3565b610fae9190611ffe565b995060008b118015610fc0575060008a115b61101d5760405162461bcd60e51b815260206004820152602860248201527f4552433230506169723a20494e53554646494349454e545f4c495155494449546044820152671657d0955493915160c21b60648201526084016104b0565b6110273084611be1565b611032878d8d611498565b61103d868d8c611498565b6040516370a0823160e01b81523060048201526001600160a01b038816906370a0823190602401602060405180830381865afa158015611081573d6000803e3d6000fd5b505050506040513d601f19601f820116820180604052508101906110a59190611fa6565b6040516370a0823160e01b81523060048201529095506001600160a01b038716906370a0823190602401602060405180830381865afa1580156110ec573d6000803e3d6000fd5b505050506040513d601f19601f820116820180604052508101906111109190611fa6565b935061111e85858b8b611670565b811561114857600754611144906001600160701b0380821691600160701b9004166115b3565b600b555b604080518c8152602081018c90526001600160a01b038e169133917fdccd412f0b1252819cb1fd330b93224ca42612892bb3f4f789976e6d81936496910160405180910390a35050505050505050506001600c81905550915091565b6000610a1d3384846118be565b600c546001146111d35760405162461bcd60e51b81526004016104b090611ed1565b6000600c556005546006546007546040516370a0823160e01b81523060048201526001600160a01b03938416939092169161126e9184918691611269916001600160701b039091169084906370a08231906024015b602060405180830381865afa158015611245573d6000803e3d6000fd5b505050506040513d601f19601f820116820180604052508101906109059190611fa6565b611498565b6007546040516370a0823160e01b81523060048201526112bb918391869161126991600160701b9091046001600160701b0316906001600160a01b038516906370a0823190602401611228565b50506001600c5550565b6004546001600160a01b031633146113165760405162461bcd60e51b815260206004820152601460248201527322a92199182830b4b91d102327a92124a22222a760611b60448201526064016104b0565b600580546001600160a01b03199081166001600160a01b03968716179091556006805490911693909416929092179092556008805463ffffffff93841667ffffffffffffffff19909116176401000000009390921692909202179055565b600c546001146113965760405162461bcd60e51b81526004016104b090611ed1565b6000600c556005546040516370a0823160e01b8152306004820152611491916001600160a01b0316906370a0823190602401602060405180830381865afa1580156113e5573d6000803e3d6000fd5b505050506040513d601f19601f820116820180604052508101906114099190611fa6565b6006546040516370a0823160e01b81523060048201526001600160a01b03909116906370a0823190602401602060405180830381865afa158015611451573d6000803e3d6000fd5b505050506040513d601f19601f820116820180604052508101906114759190611fa6565b6007546001600160701b0380821691600160701b900416611670565b6001600c55565b604080516001600160a01b038481166024830152604480830185905283518084039091018152606490920183526020820180516001600160e01b031663a9059cbb60e01b17905291516000928392908716916114f49190612012565b6000604051808303816000865af19150503d8060008114611531576040519150601f19603f3d011682016040523d82523d6000602084013e611536565b606091505b5091509150818015611560575080511580611560575080806020019051810190611560919061202e565b6115ac5760405162461bcd60e51b815260206004820152601a60248201527f4552433230506169723a205452414e534645525f4641494c454400000000000060448201526064016104b0565b5050505050565b60008115806115d7575082826115c98183612050565b92506115d59083611ffe565b145b610a215760405162461bcd60e51b815260206004820152601460248201527364732d6d6174682d6d756c2d6f766572666c6f7760601b60448201526064016104b0565b6000826116278382611fd5565b9150811115610a215760405162461bcd60e51b815260206004820152601560248201527464732d6d6174682d7375622d756e646572666c6f7760581b60448201526064016104b0565b6001600160701b03841180159061168e57506001600160701b038311155b6116d05760405162461bcd60e51b81526020600482015260136024820152724552433230506169723a204f564552464c4f5760681b60448201526064016104b0565b60006116e164010000000042612067565b60075490915060009061170190600160e01b900463ffffffff168361207b565b905060008163ffffffff1611801561172157506001600160701b03841615155b801561173557506001600160701b03831615155b156117c4578063ffffffff1661175d8561174e86611c6d565b6001600160e01b031690611c86565b6001600160e01b03166117709190612050565b60096000828254611781919061209f565b909155505063ffffffff811661179a8461174e87611c6d565b6001600160e01b03166117ad9190612050565b600a60008282546117be919061209f565b90915550505b6007805463ffffffff8416600160e01b026001600160e01b036001600160701b03898116600160701b9081026001600160e01b03199095168c83161794909417918216831794859055604080519382169282169290921783529290930490911660208201527f1c411e9a96e071241c2f21f7726b17ae89e3cab4c78be50e062b03a9fffbbad1910160405180910390a1505050505050565b6001600160a01b0383811660008181526002602090815260408083209487168084529482529182902085905590518481527f8c5be1e5ebec7d5bd14f71427d1e84f3dd0314c0f7b2291e5b200ac8c7c3b92591015b60405180910390a3505050565b6001600160a01b0383166000908152600160205260409020546118e2908290611fd5565b6001600160a01b03808516600090815260016020526040808220939093559084168152205461191290829061209f565b6001600160a01b0380841660008181526001602052604090819020939093559151908516907fddf252ad1be2c89b69c2b068fc378daa952ba7f163c4a11628f55a4df523b3ef906118b19085815260200190565b6004805460408051622fcfcb60e31b8152905160009384936001600160a01b03169263017e7e5892818301926020928290030181865afa1580156119ae573d6000803e3d6000fd5b505050506040513d601f19601f820116820180604052508101906119d291906120b2565b600b546001600160a01b038216158015945091925090611ab4578015611aaf576000611a0d610c926001600160701b038881169088166115b3565b90506000611a1a83611ac8565b905080821115611aac576000611a3c611a33848461161a565b600054906115b3565b6008549091506000908390600190611a649063ffffffff6401000000008204811691166120cf565b611a6e919061207b565b611a7e9063ffffffff1686612050565b611a88919061209f565b90506000611a968284611ffe565b90508015611aa857611aa88782611b38565b5050505b50505b611ac0565b8015611ac0576000600b555b505092915050565b60006003821115611b295750806000611ae2600283611ffe565b611aed90600161209f565b90505b81811015611b2357905080600281611b088186611ffe565b611b12919061209f565b611b1c9190611ffe565b9050611af0565b50919050565b8115611b33575060015b919050565b80600054611b46919061209f565b60009081556001600160a01b038316815260016020526040902054611b6c90829061209f565b6001600160a01b0383166000818152600160205260408082209390935591519091907fddf252ad1be2c89b69c2b068fc378daa952ba7f163c4a11628f55a4df523b3ef90611bbd9085815260200190565b60405180910390a35050565b6000818310611bd85781611bda565b825b9392505050565b6001600160a01b038216600090815260016020526040902054611c05908290611fd5565b6001600160a01b03831660009081526001602052604081209190915554611c2d908290611fd5565b60009081556040518281526001600160a01b038416907fddf252ad1be2c89b69c2b068fc378daa952ba7f163c4a11628f55a4df523b3ef90602001611bbd565b6000610a21600160701b6001600160701b0384166120f2565b6000611bda6001600160701b03831684612124565b6001600160a01b0381168114611cb057600080fd5b50565b600080600080600060808688031215611ccb57600080fd5b85359450602086013593506040860135611ce481611c9b565b9250606086013567ffffffffffffffff80821115611d0157600080fd5b818801915088601f830112611d1557600080fd5b813581811115611d2457600080fd5b896020828501011115611d3657600080fd5b9699959850939650602001949392505050565b60005b83811015611d64578181015183820152602001611d4c565b50506000910152565b6020815260008251806020840152611d8c816040850160208701611d49565b601f01601f19169190910160400192915050565b60008060408385031215611db357600080fd5b8235611dbe81611c9b565b946020939093013593505050565b600080600060608486031215611de157600080fd5b8335611dec81611c9b565b92506020840135611dfc81611c9b565b929592945050506040919091013590565b600060208284031215611e1f57600080fd5b8135611bda81611c9b565b63ffffffff81168114611cb057600080fd5b60008060008060808587031215611e5257600080fd5b8435611e5d81611c9b565b93506020850135611e6d81611c9b565b92506040850135611e7d81611e2a565b91506060850135611e8d81611e2a565b939692955090935050565b60008060408385031215611eab57600080fd5b8235611eb681611c9b565b91506020830135611ec681611c9b565b809150509250929050565b602080825260119082015270115490cc8c14185a5c8e881313d0d2d151607a1b604082015260600190565b80516001600160701b0381168114611b3357600080fd5b600080600060608486031215611f2857600080fd5b611f3184611efc565b9250611f3f60208501611efc565b91506040840151611f4f81611e2a565b809150509250925092565b60018060a01b038616815284602082015283604082015260806060820152816080820152818360a0830137600081830160a090810191909152601f909201601f19160101949350505050565b600060208284031215611fb857600080fd5b5051919050565b634e487b7160e01b600052601160045260246000fd5b81810381811115610a2157610a21611fbf565b634e487b7160e01b600052601260045260246000fd5b60008261200d5761200d611fe8565b500490565b60008251612024818460208701611d49565b9190910192915050565b60006020828403121561204057600080fd5b81518015158114611bda57600080fd5b8082028115828204841417610a2157610a21611fbf565b60008261207657612076611fe8565b500690565b63ffffffff82811682821603908082111561209857612098611fbf565b5092915050565b80820180821115610a2157610a21611fbf565b6000602082840312156120c457600080fd5b8151611bda81611c9b565b600063ffffffff808416806120e6576120e6611fe8565b92169190910492915050565b6001600160e01b0382811682821681810283169291811582850482141761211b5761211b611fbf565b50505092915050565b60006001600160e01b03838116806120e6576120e6611fe856fea2646970667358221220d09d77d61db0dd52501571d50688cdbad9f8ed3c2bb2092d364c55fbb61043a664736f6c63430008110033a2646970667358221220e438ccec17a4f30f17c77ade37f8cfa30dfd56a72578750ccdeb13bb4d70bfa764736f6c63430008110033",
  "linkReferences": {
    "contracts/router/libraries/DEXLibrary.sol": {
      "DEXLibrary": [
        {
          "length": 20,
          "start": 1524
        },
        {
          "length": 20,
          "start": 2204
        },
        {
          "length": 20,
          "start": 2509
        },
        {
          "length": 20,
          "start": 3448
        },
        {
          "length": 20,
          "start": 4463
        },
        {
          "length": 20,
          "start": 5875
        },
        {
          "length": 20,
          "start": 6790
        },
        {
          "length": 20,
          "start": 7129
        },
        {
          "length": 20,
          "start": 9354
        },
        {
          "length": 20,
          "start": 9587
        }
      ]
    }
  },
  "deployedLinkReferences": {
    "contracts/router/libraries/DEXLibrary.sol": {
      "DEXLibrary": [
        {
          "length": 20,
          "start": 1094
        },
        {
          "length": 20,
          "start": 1774
        },
        {
          "length": 20,
          "start": 2079
        },
        {
          "length": 20,
          "start": 3018
        },
        {
          "length": 20,
          "start": 4033
        },
        {
          "length": 20,
          "start": 5445
        },
        {
          "length": 20,
          "start": 6360
        },
        {
          "length": 20,
          "start": 6699
        },
        {
          "length": 20,
          "start": 8924
        },
        {
          "length": 20,
          "start": 9157
        }
      ]
    }
  }
}